{"abi":[{"type":"constructor","inputs":[{"name":"_router","type":"address","internalType":"address"}],"stateMutability":"nonpayable"},{"type":"function","name":"router","inputs":[],"outputs":[{"name":"","type":"address","internalType":"address"}],"stateMutability":"view"},{"type":"function","name":"swapViaAMM","inputs":[{"name":"params","type":"tuple","internalType":"struct CFMMAdapter.SwapParams","components":[{"name":"user","type":"address","internalType":"address"},{"name":"tokenIn","type":"address","internalType":"address"},{"name":"tokenOut","type":"address","internalType":"address"},{"name":"amountIn","type":"uint256","internalType":"uint256"},{"name":"minAmountOut","type":"uint256","internalType":"uint256"}]}],"outputs":[{"name":"","type":"bool","internalType":"bool"}],"stateMutability":"nonpayable"}],"bytecode":{"object":"0x60a034606c57601f61070138819003918201601f19168301916001600160401b03831184841017607057808492602094604052833981010312606c57516001600160a01b0381168103606c5760805260405161067c90816100858239608051818181604701526102880152f35b5f80fd5b634e487b7160e01b5f52604160045260245ffdfe6080806040526004361015610012575f80fd5b5f3560e01c908163d55f44941461007a575063f887ea4014610032575f80fd5b34610076575f366003190112610076576040517f00000000000000000000000000000000000000000000000000000000000000006001600160a01b03168152602090f35b5f80fd5b346100765760a03660031901126100765760a0810181811067ffffffffffffffff821117610110576040526004356001600160a01b03811681036100765781526024356001600160a01b03811681036100765760208201526044356001600160a01b03811681036100765781610106916040602094015260643560608201526084356080820152610182565b6040519015158152f35b634e487b7160e01b5f52604160045260245ffd5b90601f8019910116810190811067ffffffffffffffff82111761011057604052565b8051600110156101565760400190565b634e487b7160e01b5f52603260045260245ffd5b90816020910312610076575180151581036100765790565b60405190610191606083610124565b6002825260208201916040368437602082019060018060a01b0382511681511561015657845260408301516001600160a01b03166101ce82610146565b5281518351604051636eb1769f60e11b81526001600160a01b039182166004820152306024820152959160209187916044918391165afa9485156103ef575f95610612575b5060608401948551116105d4578251845186516040516323b872dd60e01b81526001600160a01b039283166004820152306024820152604481019190915291602091839160649183915f91165af19081156103ef575f916105b5575b501561057a578251855160405163095ea7b360e01b81527f00000000000000000000000000000000000000000000000000000000000000006001600160a01b0381811660048401526024830193909352929091602091839160449183915f91165af19081156103ef575f9161055b575b501561052557855191608086019384519360018060a01b038851169061012c420192834211610511576040516338ed173960e01b81526004810192909252602482019690965260a06044820152945160a48601819052859360c485019392915f5b8181106104ef57505050606484015260848301525f929082900390829084906001600160a01b03165af15f9181610450575b506103fa575050519051915160405163a9059cbb60e01b81526001600160a01b039384166004820152602481019190915291602091839160449183915f91165af180156103ef576103c257505f90565b6103e39060203d6020116103e8575b6103db8183610124565b81019061016a565b505f90565b503d6103d1565b6040513d5f823e3d90fd5b915092506104089150610146565b5190511161041557600190565b60405162461bcd60e51b8152602060048201526013602482015272125b9cdd59999a58da595b9d081bdd5d1c1d5d606a1b6044820152606490fd5b9091503d805f833e6104628183610124565b8101906020818303126100765780519067ffffffffffffffff821161007657019080601f830112156100765781519167ffffffffffffffff8311610110578260051b9060208201936104b76040519586610124565b845260208085019282010192831161007657602001905b8282106104df57505050905f610372565b81518152602091820191016104ce565b82516001600160a01b0316865288965060209586019590920191600101610340565b634e487b7160e01b5f52601160045260245ffd5b60405162461bcd60e51b815260206004820152600e60248201526d105c1c1c9bdd994819985a5b195960921b6044820152606490fd5b610574915060203d6020116103e8576103db8183610124565b5f6102df565b60405162461bcd60e51b8152602060048201526013602482015272151c985b9cd9995c919c9bdb4819985a5b1959606a1b6044820152606490fd5b6105ce915060203d6020116103e8576103db8183610124565b5f61026f565b60405162461bcd60e51b8152602060048201526016602482015275496e73756666696369656e7420616c6c6f77616e636560501b6044820152606490fd5b9094506020813d60201161063e575b8161062e60209383610124565b810103126100765751935f610213565b3d915061062156fea264697066735822122089e62d5f0c682720234d047e19919da1c624a1d49f90bce6c10f5ec38310cdd564736f6c634300081c0033","linkReferences":{}},"methodIdentifiers":{"router()":"f887ea40","swapViaAMM((address,address,address,uint256,uint256))":"d55f4494"},"id":39}