{"abi":[{"type":"function","name":"bridgeIn","inputs":[{"name":"user","type":"address","internalType":"address"},{"name":"token","type":"address","internalType":"address"},{"name":"amount","type":"uint256","internalType":"uint256"},{"name":"sourceChainId","type":"uint256","internalType":"uint256"}],"outputs":[],"stateMutability":"nonpayable"},{"type":"function","name":"bridgeOut","inputs":[{"name":"token","type":"address","internalType":"address"},{"name":"amount","type":"uint256","internalType":"uint256"},{"name":"targetChainId","type":"uint256","internalType":"uint256"}],"outputs":[],"stateMutability":"nonpayable"},{"type":"function","name":"userBalances","inputs":[{"name":"","type":"address","internalType":"address"},{"name":"","type":"address","internalType":"address"}],"outputs":[{"name":"","type":"uint256","internalType":"uint256"}],"stateMutability":"view"},{"type":"event","name":"BridgedIn","inputs":[{"name":"user","type":"address","indexed":true,"internalType":"address"},{"name":"token","type":"address","indexed":true,"internalType":"address"},{"name":"amount","type":"uint256","indexed":false,"internalType":"uint256"},{"name":"sourceChainId","type":"uint256","indexed":false,"internalType":"uint256"}],"anonymous":false},{"type":"event","name":"BridgedOut","inputs":[{"name":"user","type":"address","indexed":true,"internalType":"address"},{"name":"token","type":"address","indexed":true,"internalType":"address"},{"name":"amount","type":"uint256","indexed":false,"internalType":"uint256"},{"name":"targetChainId","type":"uint256","indexed":false,"internalType":"uint256"}],"anonymous":false}],"bytecode":{"object":"0x60808060405234601557610494908161001a8239f35b5f80fdfe60806040526004361015610011575f80fd5b5f3560e01c806315a6c9321461030557806332b99e881461008c5763adb519801461003a575f80fd5b34610088576040366003190112610088576100536103bb565b61005b6103d1565b6001600160a01b039182165f90815260208181526040808320949093168252928352819020549051908152f35b5f80fd5b34610088576060366003190112610088576100a56103bb565b602435906100b48215156103e7565b604051636eb1769f60e11b81523360048201523060248201526001600160a01b03919091169190602081604481865afa80156102165782915f916102d0575b5010610292576040516370a0823160e01b8152336004820152602081602481865afa80156102165782915f9161025d575b5010610221576040516323b872dd60e01b8152336004820152306024820152604481018290526020816064815f875af1908115610216575f916101db575b501561019e5760405190815260443560208201527f5a013ba341dd9c085f465951591cdc7e8eaa60afd14128dccbd14d2003d016a060403392a3005b60405162461bcd60e51b8152602060048201526015602482015274151bdad95b881d1c985b9cd9995c8819985a5b1959605a1b6044820152606490fd5b90506020813d60201161020e575b816101f660209383610428565b81010312610088575180151581036100885783610162565b3d91506101e9565b6040513d5f823e3d90fd5b60405162461bcd60e51b8152602060048201526014602482015273496e73756666696369656e742062616c616e636560601b6044820152606490fd5b9150506020813d60201161028a575b8161027960209383610428565b810103126100885781905184610124565b3d915061026c565b60405162461bcd60e51b8152602060048201526016602482015275496e73756666696369656e7420616c6c6f77616e636560501b6044820152606490fd5b9150506020813d6020116102fd575b816102ec60209383610428565b8101031261008857819051846100f3565b3d91506102df565b346100885760803660031901126100885761031e6103bb565b6103266103d1565b604435916103358315156103e7565b60018060a01b031690815f525f60205260405f2060018060a01b0382165f5260205260405f208054918483018093116103a7577f265693e19068815c1243a5788f522fe5926aba7d81b6aae5763fa1b63d1c255392604092558151948552606435602086015260018060a01b031693a3005b634e487b7160e01b5f52601160045260245ffd5b600435906001600160a01b038216820361008857565b602435906001600160a01b038216820361008857565b156103ee57565b60405162461bcd60e51b81526020600482015260126024820152710416d6f756e74206d757374206265203e20360741b6044820152606490fd5b90601f8019910116810190811067ffffffffffffffff82111761044a57604052565b634e487b7160e01b5f52604160045260245ffdfea2646970667358221220bef2e40ee0a0ed1d2549749e9c43750090370a7a44ae427c25dc48a26f8e9eb464736f6c634300081c0033","linkReferences":{}},"methodIdentifiers":{"bridgeIn(address,address,uint256,uint256)":"15a6c932","bridgeOut(address,uint256,uint256)":"32b99e88","userBalances(address,address)":"adb51980"},"id":42}