{"abi":[{"type":"function","name":"getIntent","inputs":[{"name":"intentId","type":"uint256","internalType":"uint256"}],"outputs":[{"name":"","type":"tuple","internalType":"struct IntentsManager.Intent","components":[{"name":"user","type":"address","internalType":"address"},{"name":"tokenIn","type":"address","internalType":"address"},{"name":"tokenOut","type":"address","internalType":"address"},{"name":"amountIn","type":"uint256","internalType":"uint256"},{"name":"minAmountOut","type":"uint256","internalType":"uint256"},{"name":"chainId","type":"uint256","internalType":"uint256"},{"name":"status","type":"uint8","internalType":"enum IntentsManager.IntentStatus"}]}],"stateMutability":"view"},{"type":"function","name":"intents","inputs":[{"name":"","type":"uint256","internalType":"uint256"}],"outputs":[{"name":"user","type":"address","internalType":"address"},{"name":"tokenIn","type":"address","internalType":"address"},{"name":"tokenOut","type":"address","internalType":"address"},{"name":"amountIn","type":"uint256","internalType":"uint256"},{"name":"minAmountOut","type":"uint256","internalType":"uint256"},{"name":"chainId","type":"uint256","internalType":"uint256"},{"name":"status","type":"uint8","internalType":"enum IntentsManager.IntentStatus"}],"stateMutability":"view"},{"type":"function","name":"isPending","inputs":[{"name":"intentId","type":"uint256","internalType":"uint256"}],"outputs":[{"name":"","type":"bool","internalType":"bool"}],"stateMutability":"view"},{"type":"function","name":"markFulfilled","inputs":[{"name":"intentId","type":"uint256","internalType":"uint256"}],"outputs":[],"stateMutability":"nonpayable"},{"type":"function","name":"nextIntentId","inputs":[],"outputs":[{"name":"","type":"uint256","internalType":"uint256"}],"stateMutability":"view"},{"type":"function","name":"submitIntent","inputs":[{"name":"tokenIn","type":"address","internalType":"address"},{"name":"tokenOut","type":"address","internalType":"address"},{"name":"amountIn","type":"uint256","internalType":"uint256"},{"name":"minAmountOut","type":"uint256","internalType":"uint256"},{"name":"chainId","type":"uint256","internalType":"uint256"}],"outputs":[{"name":"","type":"uint256","internalType":"uint256"}],"stateMutability":"nonpayable"},{"type":"function","name":"updateIntentStatus","inputs":[{"name":"intentId","type":"uint256","internalType":"uint256"},{"name":"newStatus","type":"uint8","internalType":"enum IntentsManager.IntentStatus"}],"outputs":[],"stateMutability":"nonpayable"},{"type":"event","name":"IntentStatusUpdated","inputs":[{"name":"intentId","type":"uint256","indexed":true,"internalType":"uint256"},{"name":"newStatus","type":"uint8","indexed":false,"internalType":"enum IntentsManager.IntentStatus"}],"anonymous":false},{"type":"event","name":"IntentSubmitted","inputs":[{"name":"intentId","type":"uint256","indexed":true,"internalType":"uint256"},{"name":"user","type":"address","indexed":true,"internalType":"address"},{"name":"tokenIn","type":"address","indexed":false,"internalType":"address"},{"name":"tokenOut","type":"address","indexed":false,"internalType":"address"},{"name":"amountIn","type":"uint256","indexed":false,"internalType":"uint256"},{"name":"minAmountOut","type":"uint256","indexed":false,"internalType":"uint256"},{"name":"chainId","type":"uint256","indexed":false,"internalType":"uint256"}],"anonymous":false}],"bytecode":{"object":"0x608080604052346018575f80556105ce908161001d8239f35b5f80fdfe60806040526004361015610011575f80fd5b5f3560e01c80632639f481146104db5780632dacc76b1461042e57806346a1a095146103a2578063906e277b146102435780639b7b7b1e14610227578063ca8836d2146101ec5763ce1f7c2314610066575f80fd5b346101e85760a03660031901126101e8576004356001600160a01b038116908190036101e8576024356001600160a01b03811691908290036101e8575f54906084356064356044355f1985146101d457600185015f556100c4610564565b338152602080820186815260408084018a8152606085018681526080860188815260a087018a81525f60c089018181528e8252600198899052959020975188546001600160a01b03199081166001600160a01b03928316178a5596519789018054881698821698909817909755925160028801805490961696169590951790935591516003850155915160048401555160058084019190915590519791908810156101c0576020976006610178920161054c565b60405194855286850152604084015260608301526080820152817f3f53202a7b0f60c766e1c106cffdae8615b19e4ea337b8fa5d390aa772e7296760a03393a3604051908152f35b634e487b7160e01b5f52602160045260245ffd5b634e487b7160e01b5f52601160045260245ffd5b5f80fd5b346101e85760203660031901126101e8576004355f52600160205260ff600660405f2001541660058110156101c05760209060405190158152f35b346101e8575f3660031901126101e85760205f54604051908152f35b346101e85760203660031901126101e8576004355f60c0610262610564565b8281528260208201528260408201528260608201528260808201528260a082015201525f54811015610365575f52600160205260405f206102a1610564565b81546001600160a01b039081168252600183015481166020830190815260028401549091166040830190815260038401546060840190815260048501546080850190815260058087015460a08701908152600690970154949660ff9095169460c08701949093918610156101c05760e0976103639686526040519760018060a01b03905116885260018060a01b03905116602088015260018060a01b0390511660408701525160608601525160808501525160a08401525160c083019061053f565bf35b60405162461bcd60e51b8152602060048201526015602482015274125b9d195b9d08191bd95cc81b9bdd08195e1a5cdd605a1b6044820152606490fd5b346101e85760203660031901126101e8576004355f52600160205260e060405f2061036360018060a01b038254169160018060a01b036001820154169060018060a01b03600282015416600382015460048301549160ff600660058601549501541694604051978852602088015260408701526060860152608085015260a084015260c083019061053f565b346101e85760403660031901126101e85760043560243560058110156101e8575f548210156104a25760207f5d729cd17fb32a15d54059063437a1a6aff901b67e9d806bebc21c14944ed55991835f526001825261049281600660405f200161054c565b61049f604051809261053f565ba2005b60405162461bcd60e51b8152602060048201526011602482015270125b9d985b1a59081a5b9d195b9d081251607a1b6044820152606490fd5b346101e85760203660031901126101e8576004355f548110156104a257805f5260016020526105116003600660405f200161054c565b60405160208160037f5d729cd17fb32a15d54059063437a1a6aff901b67e9d806bebc21c14944ed5599352a2005b9060058210156101c05752565b9060058110156101c05760ff80198354169116179055565b6040519060e0820182811067ffffffffffffffff82111761058457604052565b634e487b7160e01b5f52604160045260245ffdfea264697066735822122087eacacab49507fc23f006179925232051b55d7e066433b4257b4f254cfa0b4864736f6c634300081c0033","linkReferences":{}},"methodIdentifiers":{"getIntent(uint256)":"906e277b","intents(uint256)":"46a1a095","isPending(uint256)":"ca8836d2","markFulfilled(uint256)":"2639f481","nextIntentId()":"9b7b7b1e","submitIntent(address,address,uint256,uint256,uint256)":"ce1f7c23","updateIntentStatus(uint256,uint8)":"2dacc76b"},"id":43}