{"abi":[{"type":"constructor","inputs":[{"name":"_cowMatcher","type":"address","internalType":"address"},{"name":"_cfmmAdapter","type":"address","internalType":"address"},{"name":"_intentsManager","type":"address","internalType":"address"}],"stateMutability":"nonpayable"},{"type":"function","name":"cfmmAdapter","inputs":[],"outputs":[{"name":"","type":"address","internalType":"contract CFMMAdapter"}],"stateMutability":"view"},{"type":"function","name":"cowMatcher","inputs":[],"outputs":[{"name":"","type":"address","internalType":"contract CoWMatcher"}],"stateMutability":"view"},{"type":"function","name":"intentsManager","inputs":[],"outputs":[{"name":"","type":"address","internalType":"contract IntentsManager"}],"stateMutability":"view"},{"type":"function","name":"solve","inputs":[{"name":"intentId","type":"uint256","internalType":"uint256"},{"name":"matchedIntentId","type":"uint256","internalType":"uint256"}],"outputs":[],"stateMutability":"nonpayable"},{"type":"event","name":"TradeExecuted","inputs":[{"name":"intentId","type":"uint256","indexed":true,"internalType":"uint256"},{"name":"matchedIntentId","type":"uint256","indexed":true,"internalType":"uint256"}],"anonymous":false}],"bytecode":{"object":"0x60803460a257601f6104a638819003918201601f19168301916001600160401b0383118484101760a65780849260609460405283398101031260a25760428160ba565b906057604060516020840160ba565b920160ba565b5f80546001600160a01b039485166001600160a01b0319918216179091556001805493851693821693909317909255600280549190931691161790556040516103d890816100ce8239f35b5f80fd5b634e487b7160e01b5f52604160045260245ffd5b51906001600160a01b038216820360a25756fe6080806040526004361015610012575f80fd5b5f905f3560e01c908163268408221461033257508063a97d56dd1461030a578063bff7308b146102e25763f49230261461004a575f80fd5b34610211576040366003190112610211576004356024359060018060a01b03600254166040516365441b6960e11b8152826004820152602081602481855afa908115610206575f916102c3575b5015610289576020602491604051928380926365441b6960e11b82528760048301525afa908115610206575f9161025a575b5015610215575f546001600160a01b0316803b15610211575f809160446040518094819363870bf50d60e01b83528760048401528860248401525af18015610206576101f1575b5060025483906001600160a01b0316803b156101d857818091602460405180948193632639f48160e01b83528860048401525af180156101cd576101dc575b506002546001600160a01b0316803b156101d857818091602460405180948193632639f48160e01b83528960048401525af180156101cd576101b4575b50807f589de19ac049f650e30154ebb6ba9be12c5394027648b0ff506705d197ec708691a380f35b816101be91610354565b6101c957825f61018c565b8280fd5b6040513d84823e3d90fd5b5080fd5b816101e691610354565b6101c957825f61014f565b6101fe9193505f90610354565b5f915f610110565b6040513d5f823e3d90fd5b5f80fd5b60405162461bcd60e51b815260206004820152601a60248201527f4d61746368656420696e74656e74206e6f742070656e64696e670000000000006044820152606490fd5b61027c915060203d602011610282575b6102748183610354565b81019061038a565b5f6100c9565b503d61026a565b60405162461bcd60e51b8152602060048201526012602482015271496e74656e74206e6f742070656e64696e6760701b6044820152606490fd5b6102dc915060203d602011610282576102748183610354565b5f610097565b34610211575f366003190112610211576001546040516001600160a01b039091168152602090f35b34610211575f366003190112610211576002546040516001600160a01b039091168152602090f35b34610211575f366003190112610211575f546001600160a01b03168152602090f35b90601f8019910116810190811067ffffffffffffffff82111761037657604052565b634e487b7160e01b5f52604160045260245ffd5b9081602091031261021157518015158103610211579056fea2646970667358221220e6ad724ae9c41f8049a0c3cf49fe219ec1085c463e693b3c788bcb75f6fe89a364736f6c634300081c0033","linkReferences":{}},"methodIdentifiers":{"cfmmAdapter()":"bff7308b","cowMatcher()":"26840822","intentsManager()":"a97d56dd","solve(uint256,uint256)":"f4923026"},"id":46}