{"abi":[{"type":"constructor","inputs":[{"name":"_intents","type":"address","internalType":"address"}],"stateMutability":"nonpayable"},{"type":"function","name":"intents","inputs":[],"outputs":[{"name":"","type":"address","internalType":"contract IntentsManager"}],"stateMutability":"view"},{"type":"function","name":"matchAndExecute","inputs":[{"name":"idA","type":"uint256","internalType":"uint256"},{"name":"idB","type":"uint256","internalType":"uint256"}],"outputs":[],"stateMutability":"nonpayable"},{"type":"event","name":"CoWExecuted","inputs":[{"name":"intentA","type":"uint256","indexed":false,"internalType":"uint256"},{"name":"intentB","type":"uint256","indexed":false,"internalType":"uint256"},{"name":"clearingPrice","type":"uint256","indexed":false,"internalType":"uint256"}],"anonymous":false},{"type":"error","name":"ReentrancyGuardReentrantCall","inputs":[]}],"bytecode":{"object":"0x608034607057601f610b5338819003918201601f19168301916001600160401b03831184841017607457808492602094604052833981010312607057516001600160a01b0381169081900360705760015f5560018060a01b03196001541617600155604051610aca90816100898239f35b5f80fd5b634e487b7160e01b5f52604160045260245ffdfe6080806040526004361015610012575f80fd5b5f905f3560e01c908163870bf50d1461005f575063ae8f16e914610034575f80fd5b3461005c578060031936011261005c576001546040516001600160a01b039091168152602090f35b80fd5b9050346104df5760403660031901126104df5760043560243560025f541461097a5760025f5560015463906e277b60e01b8452600484018390526001600160a01b031660e084602481845afa9081156104d4576024945f92610958575b5060e0906040519586809263906e277b851b82528660048301525afa9384156104d4575f94610927575b5060c081015160058110156108d8576108ec5760c084015160058110156108d85761089d5760208101805160408601519195916001600160a01b039182169116036108625760408201516020820180519093916001600160a01b039081169116036108275760808101928351670de0b6b3a7640000810290808204670de0b6b3a76400001490151715610813576101836060840191825190610a5e565b976060850195865199670de0b6b3a76400008b029a808c04670de0b6b3a76400001490151715610813576101bd608088019b8c5190610a5e565b81018091116108135760011c9983518b8102908082048d1490151715610813578851670de0b6b3a7640000810290808204670de0b6b3a76400001490151715610813576102138d670de0b6b3a764000092610a5e565b93519104106107d857511161079d575191518351604051636eb1769f60e11b81526001600160a01b039182166004820152306024820152918116931690602081604481855afa9081156104d4575f9161076b575b5082511161071b578451604051636eb1769f60e11b81526001600160a01b039091166004820152306024820152602081604481875afa9081156104d4575f916106e9575b508651116106995783516040516370a0823160e01b81526001600160a01b039091166004820152602081602481855afa9081156104d4575f91610667575b508251116106225784516040516370a0823160e01b81526001600160a01b039091166004820152602081602481875afa9081156104d4575f916105f0575b508651116105ab578351855192516040516323b872dd60e01b81526001600160a01b03928316600482015293909116602484015260448301526020908290815f816064810103925af19081156104d4575f9161058c575b501561054f579151905192516040516323b872dd60e01b81526001600160a01b03928316600482015293909116602484015260448301526020908290815f816064810103925af19081156104d4575f91610520575b50156104e3576001546001600160a01b0316803b156104df575f8091602460405180948193632639f48160e01b83528860048401525af180156104d4576104bf575b5060015484906001600160a01b0316803b156104bb57818091602460405180948193632639f48160e01b83528860048401525af180156104b057610493575b507fd7b1680d8c997b34ffa36dbf91bf9a3278d54b503523a7a520c7e6fe2f2f3bab606084868560405192835260208301526040820152a16001815580f35b816104a091949394610989565b6104ac5790835f610454565b8380fd5b6040513d84823e3d90fd5b5080fd5b6104cc9194505f90610989565b5f925f610415565b6040513d5f823e3d90fd5b5f80fd5b60405162461bcd60e51b815260206004820152601560248201527410881d1c985b9cd9995c919c9bdb4819985a5b1959605a1b6044820152606490fd5b610542915060203d602011610548575b61053a8183610989565b810190610a7c565b5f6103d3565b503d610530565b60405162461bcd60e51b815260206004820152601560248201527410481d1c985b9cd9995c919c9bdb4819985a5b1959605a1b6044820152606490fd5b6105a5915060203d6020116105485761053a8183610989565b5f61037e565b60405162461bcd60e51b815260206004820152601b60248201527f496e73756666696369656e742062616c616e63652075736572204200000000006044820152606490fd5b90506020813d60201161061a575b8161060b60209383610989565b810103126104df57515f610327565b3d91506105fe565b60405162461bcd60e51b815260206004820152601b60248201527f496e73756666696369656e742062616c616e63652075736572204100000000006044820152606490fd5b90506020813d602011610691575b8161068260209383610989565b810103126104df57515f6102e9565b3d9150610675565b60405162461bcd60e51b815260206004820152602260248201527f496e73756666696369656e7420616c6c6f77616e63652066726f6d2075736572604482015261102160f11b6064820152608490fd5b90506020813d602011610713575b8161070460209383610989565b810103126104df57515f6102ab565b3d91506106f7565b60405162461bcd60e51b815260206004820152602260248201527f496e73756666696369656e7420616c6c6f77616e63652066726f6d2075736572604482015261204160f01b6064820152608490fd5b90506020813d602011610795575b8161078660209383610989565b810103126104df57515f610267565b3d9150610779565b60405162461bcd60e51b815260206004820152601360248201527208440e6d8d2e0e0c2ceca40e8dede40d0d2ced606b1b6044820152606490fd5b60405162461bcd60e51b815260206004820152601360248201527208240e6d8d2e0e0c2ceca40e8dede40d0d2ced606b1b6044820152606490fd5b634e487b7160e01b5f52601160045260245ffd5b60405162461bcd60e51b8152602060048201526013602482015272546f6b656e206d69736d6174636820422d3e4160681b6044820152606490fd5b60405162461bcd60e51b81526020600482015260136024820152722a37b5b2b71036b4b9b6b0ba31b41020969f2160691b6044820152606490fd5b60405162461bcd60e51b8152602060048201526013602482015272496e74656e742042206e6f742061637469766560681b6044820152606490fd5b634e487b7160e01b5f52602160045260245ffd5b60405162461bcd60e51b8152602060048201526013602482015272496e74656e742041206e6f742061637469766560681b6044820152606490fd5b61094a91945060e03d60e011610951575b6109428183610989565b8101906109d3565b925f6100e6565b503d610938565b60e091925061097390823d8411610951576109428183610989565b91906100bc565b633ee5aeb560e01b5f5260045ffd5b90601f8019910116810190811067ffffffffffffffff8211176109ab57604052565b634e487b7160e01b5f52604160045260245ffd5b51906001600160a01b03821682036104df57565b908160e09103126104df576040519060e082019082821067ffffffffffffffff8311176109ab5760c091604052610a09816109bf565b8352610a17602082016109bf565b6020840152610a28604082016109bf565b6040840152606081015160608401526080810151608084015260a081015160a0840152015160058110156104df5760c082015290565b8115610a68570490565b634e487b7160e01b5f52601260045260245ffd5b908160209103126104df575180151581036104df579056fea26469706673582212201999c304ba33164f7108e2f9915b344f028a75d56f72c63b51b89ba4a6cd77e564736f6c634300081c0033","linkReferences":{}},"methodIdentifiers":{"intents()":"ae8f16e9","matchAndExecute(uint256,uint256)":"870bf50d"},"id":40}